{
  "_format": "hh-sol-artifact-1",
  "contractName": "SupplyChain",
  "sourceName": "contracts/SupplyChain.sol",
  "abi": [
    {
      "inputs": [],
      "stateMutability": "nonpayable",
      "type": "constructor"
    },
    {
      "anonymous": false,
      "inputs": [
        {
          "indexed": true,
          "internalType": "address",
          "name": "previousOwner",
          "type": "address"
        },
        {
          "indexed": true,
          "internalType": "address",
          "name": "newOwner",
          "type": "address"
        }
      ],
      "name": "OwnershipTransferred",
      "type": "event"
    },
    {
      "anonymous": false,
      "inputs": [
        {
          "indexed": true,
          "internalType": "uint256",
          "name": "id",
          "type": "uint256"
        },
        {
          "indexed": false,
          "internalType": "string",
          "name": "name",
          "type": "string"
        },
        {
          "indexed": false,
          "internalType": "string",
          "name": "origin",
          "type": "string"
        },
        {
          "indexed": true,
          "internalType": "address",
          "name": "owner",
          "type": "address"
        }
      ],
      "name": "ProductAdded",
      "type": "event"
    },
    {
      "anonymous": false,
      "inputs": [
        {
          "indexed": true,
          "internalType": "uint256",
          "name": "id",
          "type": "uint256"
        },
        {
          "indexed": true,
          "internalType": "address",
          "name": "previousOwner",
          "type": "address"
        },
        {
          "indexed": true,
          "internalType": "address",
          "name": "newOwner",
          "type": "address"
        }
      ],
      "name": "ProductOwnershipTransferred",
      "type": "event"
    },
    {
      "anonymous": false,
      "inputs": [
        {
          "indexed": true,
          "internalType": "uint256",
          "name": "id",
          "type": "uint256"
        },
        {
          "indexed": false,
          "internalType": "uint256",
          "name": "status",
          "type": "uint256"
        },
        {
          "indexed": true,
          "internalType": "address",
          "name": "updater",
          "type": "address"
        }
      ],
      "name": "StatusUpdated",
      "type": "event"
    },
    {
      "inputs": [
        {
          "internalType": "address",
          "name": "entity",
          "type": "address"
        }
      ],
      "name": "addAuthorizedEntity",
      "outputs": [],
      "stateMutability": "nonpayable",
      "type": "function"
    },
    {
      "inputs": [
        {
          "internalType": "string",
          "name": "name",
          "type": "string"
        },
        {
          "internalType": "string",
          "name": "origin",
          "type": "string"
        }
      ],
      "name": "addProduct",
      "outputs": [],
      "stateMutability": "nonpayable",
      "type": "function"
    },
    {
      "inputs": [
        {
          "internalType": "address",
          "name": "",
          "type": "address"
        }
      ],
      "name": "authorizedEntities",
      "outputs": [
        {
          "internalType": "bool",
          "name": "",
          "type": "bool"
        }
      ],
      "stateMutability": "view",
      "type": "function"
    },
    {
      "inputs": [
        {
          "internalType": "uint256",
          "name": "id",
          "type": "uint256"
        }
      ],
      "name": "getProduct",
      "outputs": [
        {
          "components": [
            {
              "internalType": "uint256",
              "name": "id",
              "type": "uint256"
            },
            {
              "internalType": "string",
              "name": "name",
              "type": "string"
            },
            {
              "internalType": "string",
              "name": "origin",
              "type": "string"
            },
            {
              "internalType": "address",
              "name": "owner",
              "type": "address"
            },
            {
              "internalType": "uint256",
              "name": "status",
              "type": "uint256"
            },
            {
              "internalType": "uint256",
              "name": "timestamp",
              "type": "uint256"
            }
          ],
          "internalType": "struct SupplyChain.Product",
          "name": "",
          "type": "tuple"
        }
      ],
      "stateMutability": "view",
      "type": "function"
    },
    {
      "inputs": [
        {
          "internalType": "uint256",
          "name": "id",
          "type": "uint256"
        }
      ],
      "name": "getProductHistory",
      "outputs": [
        {
          "components": [
            {
              "internalType": "uint256",
              "name": "id",
              "type": "uint256"
            },
            {
              "internalType": "string",
              "name": "name",
              "type": "string"
            },
            {
              "internalType": "string",
              "name": "origin",
              "type": "string"
            },
            {
              "internalType": "address",
              "name": "owner",
              "type": "address"
            },
            {
              "internalType": "uint256",
              "name": "status",
              "type": "uint256"
            },
            {
              "internalType": "uint256",
              "name": "timestamp",
              "type": "uint256"
            }
          ],
          "internalType": "struct SupplyChain.Product[]",
          "name": "",
          "type": "tuple[]"
        }
      ],
      "stateMutability": "view",
      "type": "function"
    },
    {
      "inputs": [],
      "name": "owner",
      "outputs": [
        {
          "internalType": "address",
          "name": "",
          "type": "address"
        }
      ],
      "stateMutability": "view",
      "type": "function"
    },
    {
      "inputs": [],
      "name": "productCount",
      "outputs": [
        {
          "internalType": "uint256",
          "name": "",
          "type": "uint256"
        }
      ],
      "stateMutability": "view",
      "type": "function"
    },
    {
      "inputs": [
        {
          "internalType": "uint256",
          "name": "",
          "type": "uint256"
        },
        {
          "internalType": "uint256",
          "name": "",
          "type": "uint256"
        }
      ],
      "name": "productHistory",
      "outputs": [
        {
          "internalType": "uint256",
          "name": "id",
          "type": "uint256"
        },
        {
          "internalType": "string",
          "name": "name",
          "type": "string"
        },
        {
          "internalType": "string",
          "name": "origin",
          "type": "string"
        },
        {
          "internalType": "address",
          "name": "owner",
          "type": "address"
        },
        {
          "internalType": "uint256",
          "name": "status",
          "type": "uint256"
        },
        {
          "internalType": "uint256",
          "name": "timestamp",
          "type": "uint256"
        }
      ],
      "stateMutability": "view",
      "type": "function"
    },
    {
      "inputs": [
        {
          "internalType": "uint256",
          "name": "",
          "type": "uint256"
        }
      ],
      "name": "products",
      "outputs": [
        {
          "internalType": "uint256",
          "name": "id",
          "type": "uint256"
        },
        {
          "internalType": "string",
          "name": "name",
          "type": "string"
        },
        {
          "internalType": "string",
          "name": "origin",
          "type": "string"
        },
        {
          "internalType": "address",
          "name": "owner",
          "type": "address"
        },
        {
          "internalType": "uint256",
          "name": "status",
          "type": "uint256"
        },
        {
          "internalType": "uint256",
          "name": "timestamp",
          "type": "uint256"
        }
      ],
      "stateMutability": "view",
      "type": "function"
    },
    {
      "inputs": [
        {
          "internalType": "address",
          "name": "entity",
          "type": "address"
        }
      ],
      "name": "removeAuthorizedEntity",
      "outputs": [],
      "stateMutability": "nonpayable",
      "type": "function"
    },
    {
      "inputs": [],
      "name": "renounceOwnership",
      "outputs": [],
      "stateMutability": "nonpayable",
      "type": "function"
    },
    {
      "inputs": [
        {
          "internalType": "address",
          "name": "newOwner",
          "type": "address"
        }
      ],
      "name": "transferOwnership",
      "outputs": [],
      "stateMutability": "nonpayable",
      "type": "function"
    },
    {
      "inputs": [
        {
          "internalType": "uint256",
          "name": "id",
          "type": "uint256"
        },
        {
          "internalType": "address",
          "name": "newOwner",
          "type": "address"
        }
      ],
      "name": "transferProductOwnership",
      "outputs": [],
      "stateMutability": "nonpayable",
      "type": "function"
    },
    {
      "inputs": [
        {
          "internalType": "uint256",
          "name": "id",
          "type": "uint256"
        },
        {
          "internalType": "uint256",
          "name": "status",
          "type": "uint256"
        }
      ],
      "name": "updateStatus",
      "outputs": [],
      "stateMutability": "nonpayable",
      "type": "function"
    }
  ],
  "bytecode": "0x608060405234801561001057600080fd5b5061002d61002261008a60201b60201c565b61009260201b60201c565b6001600460003373ffffffffffffffffffffffffffffffffffffffff1673ffffffffffffffffffffffffffffffffffffffff16815260200190815260200160002060006101000a81548160ff021916908315150217905550610156565b600033905090565b60008060009054906101000a900473ffffffffffffffffffffffffffffffffffffffff169050816000806101000a81548173ffffffffffffffffffffffffffffffffffffffff021916908373ffffffffffffffffffffffffffffffffffffffff1602179055508173ffffffffffffffffffffffffffffffffffffffff168173ffffffffffffffffffffffffffffffffffffffff167f8be0079c531659141344cd1fd0a4f28419497f9722a3daafe3b4186f6b6457e060405160405180910390a35050565b61225080620001666000396000f3fe608060405234801561001057600080fd5b50600436106100ea5760003560e01c80638da5cb5b1161008c578063ca2efb5511610066578063ca2efb5514610265578063e0f6ef8714610281578063e2f318291461029f578063f2fde38b146102bb576100ea565b80638da5cb5b146101fb5780639ce0214014610219578063b9db15b414610235576100ea565b80636580eb56116100c85780636580eb5614610184578063715018a6146101a05780637acc0b20146101aa57806386b0e812146101df576100ea565b806333616eee146100ef5780633a7d23761461011f57806357a096a114610154575b600080fd5b61010960048036038101906101049190611552565b6102d7565b604051610116919061159a565b60405180910390f35b610139600480360381019061013491906115eb565b6102f7565b60405161014b969594939291906116d9565b60405180910390f35b61016e60048036038101906101699190611748565b610480565b60405161017b919061192f565b60405180910390f35b61019e60048036038101906101999190611552565b61068a565b005b6101a86106ed565b005b6101c460048036038101906101bf9190611748565b610701565b6040516101d6969594939291906116d9565b60405180910390f35b6101f960048036038101906101f49190611951565b61086d565b005b610203610b11565b6040516102109190611991565b60405180910390f35b610233600480360381019061022e9190611552565b610b3a565b005b61024f600480360381019061024a9190611748565b610b9d565b60405161025c9190611a3c565b60405180910390f35b61027f600480360381019061027a9190611b93565b610d62565b005b61028961108d565b6040516102969190611c0b565b60405180910390f35b6102b960048036038101906102b491906115eb565b611093565b005b6102d560048036038101906102d09190611552565b6112c7565b005b60046020528060005260406000206000915054906101000a900460ff1681565b6003602052816000526040600020818154811061031357600080fd5b90600052602060002090600602016000915091505080600001549080600101805461033d90611c55565b80601f016020809104026020016040519081016040528092919081815260200182805461036990611c55565b80156103b65780601f1061038b576101008083540402835291602001916103b6565b820191906000526020600020905b81548152906001019060200180831161039957829003601f168201915b5050505050908060020180546103cb90611c55565b80601f01602080910402602001604051908101604052809291908181526020018280546103f790611c55565b80156104445780601f1061041957610100808354040283529160200191610444565b820191906000526020600020905b81548152906001019060200180831161042757829003601f168201915b5050505050908060030160009054906101000a900473ffffffffffffffffffffffffffffffffffffffff16908060040154908060050154905086565b606060036000838152602001908152602001600020805480602002602001604051908101604052809291908181526020016000905b8282101561067f57838290600052602060002090600602016040518060c0016040529081600082015481526020016001820180546104f290611c55565b80601f016020809104026020016040519081016040528092919081815260200182805461051e90611c55565b801561056b5780601f106105405761010080835404028352916020019161056b565b820191906000526020600020905b81548152906001019060200180831161054e57829003601f168201915b5050505050815260200160028201805461058490611c55565b80601f01602080910402602001604051908101604052809291908181526020018280546105b090611c55565b80156105fd5780601f106105d2576101008083540402835291602001916105fd565b820191906000526020600020905b8154815290600101906020018083116105e057829003601f168201915b505050505081526020016003820160009054906101000a900473ffffffffffffffffffffffffffffffffffffffff1673ffffffffffffffffffffffffffffffffffffffff1673ffffffffffffffffffffffffffffffffffffffff16815260200160048201548152602001600582015481525050815260200190600101906104b5565b505050509050919050565b61069261134a565b6001600460008373ffffffffffffffffffffffffffffffffffffffff1673ffffffffffffffffffffffffffffffffffffffff16815260200190815260200160002060006101000a81548160ff02191690831515021790555050565b6106f561134a565b6106ff60006113c8565b565b600260205280600052604060002060009150905080600001549080600101805461072a90611c55565b80601f016020809104026020016040519081016040528092919081815260200182805461075690611c55565b80156107a35780601f10610778576101008083540402835291602001916107a3565b820191906000526020600020905b81548152906001019060200180831161078657829003601f168201915b5050505050908060020180546107b890611c55565b80601f01602080910402602001604051908101604052809291908181526020018280546107e490611c55565b80156108315780601f1061080657610100808354040283529160200191610831565b820191906000526020600020905b81548152906001019060200180831161081457829003601f168201915b5050505050908060030160009054906101000a900473ffffffffffffffffffffffffffffffffffffffff16908060040154908060050154905086565b600460003373ffffffffffffffffffffffffffffffffffffffff1673ffffffffffffffffffffffffffffffffffffffff16815260200190815260200160002060009054906101000a900460ff16806108f757506108c8610b11565b73ffffffffffffffffffffffffffffffffffffffff163373ffffffffffffffffffffffffffffffffffffffff16145b610936576040517f08c379a000000000000000000000000000000000000000000000000000000000815260040161092d90611cd2565b60405180910390fd5b600060026000848152602001908152602001600020905060008160030160009054906101000a900473ffffffffffffffffffffffffffffffffffffffff169050828260030160006101000a81548173ffffffffffffffffffffffffffffffffffffffff021916908373ffffffffffffffffffffffffffffffffffffffff160217905550428260050181905550600360008581526020019081526020016000208290806001815401808255809150506001900390600052602060002090600602016000909190919091506000820154816000015560018201816001019081610a1d9190611eb4565b5060028201816002019081610a329190611eb4565b506003820160009054906101000a900473ffffffffffffffffffffffffffffffffffffffff168160030160006101000a81548173ffffffffffffffffffffffffffffffffffffffff021916908373ffffffffffffffffffffffffffffffffffffffff160217905550600482015481600401556005820154816005015550508273ffffffffffffffffffffffffffffffffffffffff168173ffffffffffffffffffffffffffffffffffffffff16857f4b0e9e82ed087a40d368998aacab3a2798626e8d60b60fbc6f1bbcdaf3eaa02d60405160405180910390a450505050565b60008060009054906101000a900473ffffffffffffffffffffffffffffffffffffffff16905090565b610b4261134a565b6000600460008373ffffffffffffffffffffffffffffffffffffffff1673ffffffffffffffffffffffffffffffffffffffff16815260200190815260200160002060006101000a81548160ff02191690831515021790555050565b610ba5611494565b600260008381526020019081526020016000206040518060c001604052908160008201548152602001600182018054610bdd90611c55565b80601f0160208091040260200160405190810160405280929190818152602001828054610c0990611c55565b8015610c565780601f10610c2b57610100808354040283529160200191610c56565b820191906000526020600020905b815481529060010190602001808311610c3957829003601f168201915b50505050508152602001600282018054610c6f90611c55565b80601f0160208091040260200160405190810160405280929190818152602001828054610c9b90611c55565b8015610ce85780601f10610cbd57610100808354040283529160200191610ce8565b820191906000526020600020905b815481529060010190602001808311610ccb57829003601f168201915b505050505081526020016003820160009054906101000a900473ffffffffffffffffffffffffffffffffffffffff1673ffffffffffffffffffffffffffffffffffffffff1673ffffffffffffffffffffffffffffffffffffffff168152602001600482015481526020016005820154815250509050919050565b600460003373ffffffffffffffffffffffffffffffffffffffff1673ffffffffffffffffffffffffffffffffffffffff16815260200190815260200160002060009054906101000a900460ff1680610dec5750610dbd610b11565b73ffffffffffffffffffffffffffffffffffffffff163373ffffffffffffffffffffffffffffffffffffffff16145b610e2b576040517f08c379a0000000000000000000000000000000000000000000000000000000008152600401610e2290611cd2565b60405180910390fd5b60016000815480929190610e3e90611fcb565b91905055506040518060c0016040528060015481526020018381526020018281526020013373ffffffffffffffffffffffffffffffffffffffff1681526020016000815260200142815250600260006001548152602001908152602001600020600082015181600001556020820151816001019081610ebd9190612013565b506040820151816002019081610ed39190612013565b5060608201518160030160006101000a81548173ffffffffffffffffffffffffffffffffffffffff021916908373ffffffffffffffffffffffffffffffffffffffff1602179055506080820151816004015560a0820151816005015590505060036000600154815260200190815260200160002060026000600154815260200190815260200160002090806001815401808255809150506001900390600052602060002090600602016000909190919091506000820154816000015560018201816001019081610fa39190611eb4565b5060028201816002019081610fb89190611eb4565b506003820160009054906101000a900473ffffffffffffffffffffffffffffffffffffffff168160030160006101000a81548173ffffffffffffffffffffffffffffffffffffffff021916908373ffffffffffffffffffffffffffffffffffffffff160217905550600482015481600401556005820154816005015550503373ffffffffffffffffffffffffffffffffffffffff166001547f3b57b518fcac2f7b307764de2a4b23b8543199fbd772f419dcb5a470edbc0ba784846040516110819291906120e5565b60405180910390a35050565b60015481565b600460003373ffffffffffffffffffffffffffffffffffffffff1673ffffffffffffffffffffffffffffffffffffffff16815260200190815260200160002060009054906101000a900460ff168061111d57506110ee610b11565b73ffffffffffffffffffffffffffffffffffffffff163373ffffffffffffffffffffffffffffffffffffffff16145b61115c576040517f08c379a000000000000000000000000000000000000000000000000000000000815260040161115390611cd2565b60405180910390fd5b60006002600084815260200190815260200160002090508181600401819055504281600501819055506003600084815260200190815260200160002081908060018154018082558091505060019003906000526020600020906006020160009091909190915060008201548160000155600182018160010190816111e09190611eb4565b50600282018160020190816111f59190611eb4565b506003820160009054906101000a900473ffffffffffffffffffffffffffffffffffffffff168160030160006101000a81548173ffffffffffffffffffffffffffffffffffffffff021916908373ffffffffffffffffffffffffffffffffffffffff160217905550600482015481600401556005820154816005015550503373ffffffffffffffffffffffffffffffffffffffff16837f3ee945891f74bda62dff5a26d9b434d04d69c1c7fb9291a39395602fbda4d937846040516112ba9190611c0b565b60405180910390a3505050565b6112cf61134a565b600073ffffffffffffffffffffffffffffffffffffffff168173ffffffffffffffffffffffffffffffffffffffff160361133e576040517f08c379a00000000000000000000000000000000000000000000000000000000081526004016113359061218e565b60405180910390fd5b611347816113c8565b50565b61135261148c565b73ffffffffffffffffffffffffffffffffffffffff16611370610b11565b73ffffffffffffffffffffffffffffffffffffffff16146113c6576040517f08c379a00000000000000000000000000000000000000000000000000000000081526004016113bd906121fa565b60405180910390fd5b565b60008060009054906101000a900473ffffffffffffffffffffffffffffffffffffffff169050816000806101000a81548173ffffffffffffffffffffffffffffffffffffffff021916908373ffffffffffffffffffffffffffffffffffffffff1602179055508173ffffffffffffffffffffffffffffffffffffffff168173ffffffffffffffffffffffffffffffffffffffff167f8be0079c531659141344cd1fd0a4f28419497f9722a3daafe3b4186f6b6457e060405160405180910390a35050565b600033905090565b6040518060c00160405280600081526020016060815260200160608152602001600073ffffffffffffffffffffffffffffffffffffffff16815260200160008152602001600081525090565b6000604051905090565b600080fd5b600080fd5b600073ffffffffffffffffffffffffffffffffffffffff82169050919050565b600061151f826114f4565b9050919050565b61152f81611514565b811461153a57600080fd5b50565b60008135905061154c81611526565b92915050565b600060208284031215611568576115676114ea565b5b60006115768482850161153d565b91505092915050565b60008115159050919050565b6115948161157f565b82525050565b60006020820190506115af600083018461158b565b92915050565b6000819050919050565b6115c8816115b5565b81146115d357600080fd5b50565b6000813590506115e5816115bf565b92915050565b60008060408385031215611602576116016114ea565b5b6000611610858286016115d6565b9250506020611621858286016115d6565b9150509250929050565b611634816115b5565b82525050565b600081519050919050565b600082825260208201905092915050565b60005b83811015611674578082015181840152602081019050611659565b60008484015250505050565b6000601f19601f8301169050919050565b600061169c8261163a565b6116a68185611645565b93506116b6818560208601611656565b6116bf81611680565b840191505092915050565b6116d381611514565b82525050565b600060c0820190506116ee600083018961162b565b81810360208301526117008188611691565b905081810360408301526117148187611691565b905061172360608301866116ca565b611730608083018561162b565b61173d60a083018461162b565b979650505050505050565b60006020828403121561175e5761175d6114ea565b5b600061176c848285016115d6565b91505092915050565b600081519050919050565b600082825260208201905092915050565b6000819050602082019050919050565b6117aa816115b5565b82525050565b600082825260208201905092915050565b60006117cc8261163a565b6117d681856117b0565b93506117e6818560208601611656565b6117ef81611680565b840191505092915050565b61180381611514565b82525050565b600060c08301600083015161182160008601826117a1565b506020830151848203602086015261183982826117c1565b9150506040830151848203604086015261185382826117c1565b915050606083015161186860608601826117fa565b50608083015161187b60808601826117a1565b5060a083015161188e60a08601826117a1565b508091505092915050565b60006118a58383611809565b905092915050565b6000602082019050919050565b60006118c582611775565b6118cf8185611780565b9350836020820285016118e185611791565b8060005b8581101561191d57848403895281516118fe8582611899565b9450611909836118ad565b925060208a019950506001810190506118e5565b50829750879550505050505092915050565b6000602082019050818103600083015261194981846118ba565b905092915050565b60008060408385031215611968576119676114ea565b5b6000611976858286016115d6565b92505060206119878582860161153d565b9150509250929050565b60006020820190506119a660008301846116ca565b92915050565b600060c0830160008301516119c460008601826117a1565b50602083015184820360208601526119dc82826117c1565b915050604083015184820360408601526119f682826117c1565b9150506060830151611a0b60608601826117fa565b506080830151611a1e60808601826117a1565b5060a0830151611a3160a08601826117a1565b508091505092915050565b60006020820190508181036000830152611a5681846119ac565b905092915050565b600080fd5b600080fd5b7f4e487b7100000000000000000000000000000000000000000000000000000000600052604160045260246000fd5b611aa082611680565b810181811067ffffffffffffffff82111715611abf57611abe611a68565b5b80604052505050565b6000611ad26114e0565b9050611ade8282611a97565b919050565b600067ffffffffffffffff821115611afe57611afd611a68565b5b611b0782611680565b9050602081019050919050565b82818337600083830152505050565b6000611b36611b3184611ae3565b611ac8565b905082815260208101848484011115611b5257611b51611a63565b5b611b5d848285611b14565b509392505050565b600082601f830112611b7a57611b79611a5e565b5b8135611b8a848260208601611b23565b91505092915050565b60008060408385031215611baa57611ba96114ea565b5b600083013567ffffffffffffffff811115611bc857611bc76114ef565b5b611bd485828601611b65565b925050602083013567ffffffffffffffff811115611bf557611bf46114ef565b5b611c0185828601611b65565b9150509250929050565b6000602082019050611c20600083018461162b565b92915050565b7f4e487b7100000000000000000000000000000000000000000000000000000000600052602260045260246000fd5b60006002820490506001821680611c6d57607f821691505b602082108103611c8057611c7f611c26565b5b50919050565b7f4e6f7420617574686f72697a6564000000000000000000000000000000000000600082015250565b6000611cbc600e83611645565b9150611cc782611c86565b602082019050919050565b60006020820190508181036000830152611ceb81611caf565b9050919050565b600081549050611d0181611c55565b9050919050565b60008190508160005260206000209050919050565b60006020601f8301049050919050565b600082821b905092915050565b600060088302611d6a7fffffffffffffffffffffffffffffffffffffffffffffffffffffffffffffffff82611d2d565b611d748683611d2d565b95508019841693508086168417925050509392505050565b6000819050919050565b6000611db1611dac611da7846115b5565b611d8c565b6115b5565b9050919050565b6000819050919050565b611dcb83611d96565b611ddf611dd782611db8565b848454611d3a565b825550505050565b600090565b611df4611de7565b611dff818484611dc2565b505050565b5b81811015611e2357611e18600082611dec565b600181019050611e05565b5050565b601f821115611e6857611e3981611d08565b611e4284611d1d565b81016020851015611e51578190505b611e65611e5d85611d1d565b830182611e04565b50505b505050565b600082821c905092915050565b6000611e8b60001984600802611e6d565b1980831691505092915050565b6000611ea48383611e7a565b9150826002028217905092915050565b818103611ec2575050611f9a565b611ecb82611cf2565b67ffffffffffffffff811115611ee457611ee3611a68565b5b611eee8254611c55565b611ef9828285611e27565b6000601f831160018114611f285760008415611f16578287015490505b611f208582611e98565b865550611f93565b601f198416611f3687611d08565b9650611f4186611d08565b60005b82811015611f6957848901548255600182019150600185019450602081019050611f44565b86831015611f865784890154611f82601f891682611e7a565b8355505b6001600288020188555050505b5050505050505b565b7f4e487b7100000000000000000000000000000000000000000000000000000000600052601160045260246000fd5b6000611fd6826115b5565b91507fffffffffffffffffffffffffffffffffffffffffffffffffffffffffffffffff820361200857612007611f9c565b5b600182019050919050565b61201c8261163a565b67ffffffffffffffff81111561203557612034611a68565b5b61203f8254611c55565b61204a828285611e27565b600060209050601f83116001811461207d576000841561206b578287015190505b6120758582611e98565b8655506120dd565b601f19841661208b86611d08565b60005b828110156120b35784890151825560018201915060208501945060208101905061208e565b868310156120d057848901516120cc601f891682611e7a565b8355505b6001600288020188555050505b505050505050565b600060408201905081810360008301526120ff8185611691565b905081810360208301526121138184611691565b90509392505050565b7f4f776e61626c653a206e6577206f776e657220697320746865207a65726f206160008201527f6464726573730000000000000000000000000000000000000000000000000000602082015250565b6000612178602683611645565b91506121838261211c565b604082019050919050565b600060208201905081810360008301526121a78161216b565b9050919050565b7f4f776e61626c653a2063616c6c6572206973206e6f7420746865206f776e6572600082015250565b60006121e4602083611645565b91506121ef826121ae565b602082019050919050565b60006020820190508181036000830152612213816121d7565b905091905056fea264697066735822122042243a7bc2ef91b857767576a2f4ab5606e75ff121d60710512ada5ce3eb488164736f6c63430008110033",
  "linkReferences": {},
  "deployedLinkReferences": {}
}